UVSD2009010131608112       31608112       12059000400100BG RCI - Bergbau                   (ehemals Bergbau-BG)                                                  44789Bochum                        Hunscheidtstr. 18             0000000000000000000062400     188510012009123161635458       007110123456789-                                       #####-#####:#######                                                                                   0        
UVSD2010010161635458       31608112       12059000400100BG RCI - Bergbau                   (ehemals Bergbau-BG)                                                  44789Bochum                        Hunscheidtstr. 18             0000000000000000000074400     20100101                       007110123456789-                                       #####-#####:#######                                                                                   0        
UVSD2016010161635458       31608112       12059000400100BG RCI - Bergbau                   (ehemals Bergbau-BG)                                                  44789Bochum                        Hunscheidtstr. 18             0000000000000000000084000     20100101                       007110123456789-                                       #####-#####:#######                                                                                   0        
UVSD2009010129029801       29029801       12039006800200BG RCI - Baustoffe-Steine-Erden    (ehemals Steinbruchs-BG)                                              30853Langenhagen                   Theodor-Heuss-Str. 160        0000000000000000000066000     188510012009123161635458       107110123456789.                                       #.######.@@:#########:#######                                                                       060        
UVSD2010010161635458       29029801       12039006800200BG RCI - Baustoffe-Steine-Erden    (ehemals Steinbruchs-BG)                                              30853Langenhagen                   Theodor-Heuss-Str. 160        0000000000000000000074400     20100101                       107110123456789.                                       #.######.@@:#########:#######                                                                       060        
UVSD2013010161635458       29029801       12039006800200BG RCI - Baustoffe-Steine-Erden    (ehemals Steinbruchs-BG)                                              30853Langenhagen                   Theodor-Heuss-Str. 160        0000000000000000000074400     20100101                       007110123456789.                                       #.######.@@:#########:#######                                                                       060        
UVSD2014010161635458       29029801       12039006800200BG RCI - Baustoffe-Steine-Erden    (ehemals Steinbruchs-BG)                                              30853Langenhagen                   Theodor-Heuss-Str. 160        0000000000000000000074400     20100101                       007110123456789.                                       #.######.@@:#########:#######                                                                       060        
UVSD2016010161635458       29029801       12039006800200BG RCI - Baustoffe-Steine-Erden    (ehemals Steinbruchs-BG)                                              30853Langenhagen                   Theodor-Heuss-Str. 160        0000000000000000000084000     20100101                       007110123456789.                                       #.######.@@:#########:#######                                                                       060        
UVSD2009010175932959       75932959       12099012200300BG Glas Keramik                                                                                          97072Würzburg                      Riemenschneiderstraße 2       0000000000000000000084000     190001012008123115250094       0                                                                                                                                                            020081231
UVSD2009010134364294       34364294       12059018400400BGETEM - Energie und Wasserwirtsch.(ehemals BGFW)                                                        40225Düsseldorf                    Auf´m Hennekamp 74            0000000000000000000084000     188510012009033137916971       006080123456789/                                       #####/@:#####@:40#####@                                                                             080        
UVSD2009040137916971       34364294       12059018400400BGETEM - Energie und Wasserwirtsch.(ehemals BGFW)                                                        40225Düsseldorf                    Auf´m Hennekamp 74            0000000000000000000084000     18851001                       006080123456789/                                       #####/@:#####@:40#####@                                                                             08020121231
UVSD2009010134364283       34364283       12059020800500Hütten und Walzwerks-BG                                                                                  40210Düsseldorf                    Kreuzstr. 45                  0000000000000000000072000     18851001                       009090123456789                                        #########                                                                                             0        
UVSD2011010134364283       34364283       12059020800500BG Holz und Metall                 (ehemals HWBG)                                                        40210Düsseldorf                    Kreuzstr. 45                  0000000000000000000072000     19000101                       009090123456789                                        #########                                                                                             0        
UVSD2012010134364283       34364283       12059020800500BG Holz und Metall                 (ehemals HWBG)                                                        55130Mainz                         Wilh.-Theodor-Römheld-Str. 15 0000000000000000000084000     19000101                       009090123456789                                        #########                                                                                             020121231
UVSD2017010134364283       34364283       12059020800500BG Holz und Metall                 (ehemals HWBG)                                                        55124Mainz                         Isaac-Fulda-Allee 18          0000000000000000000084000     190001012012123152742028       009090123456789                                        #########                                                                                             020121231
UVSD2009010134217193       34217193       12059024200600Maschinenbau- und Metall-BG                                                                              40210Düsseldorf                    Kreuzstr. 45                  0000000000000000000072000     18851001                       009090123456789                                        #########                                                                                             0        
UVSD2011010134217193       34217193       12059024200600BG Holz und Metall                 (ehemals MMBG)                                                        40210Düsseldorf                    Kreuzstr. 45                  0000000000000000000072000     19000101                       009090123456789                                        #########                                                                                             0        
UVSD2012010134217193       34217193       12059024200600BG Holz und Metall                 (ehemals MMBG)                                                        55130Mainz                         Wilh.-Theodor-Römheld-Str. 15 0000000000000000000084000     19000101                       009090123456789                                        #########                                                                                             020121231
UVSD2017010134217193       34217193       12059024200600BG Holz und Metall                 (ehemals MMBG)                                                        55124Mainz                         Isaac-Fulda-Allee 18          0000000000000000000084000     190001012012123152742028       009090123456789                                        #########                                                                                             020121231
UVSD2009010152742028       29059513       12079033500700BG Metall Nord                     (ehemals NMBG)                                                        30172Hannover                      Seligmannallee 4              0000000000000000000072000     19000101                       009090123456789                                        #########                                                                                             020091231
UVSD2009010152742028       52742028       12079033500800BG Metall Süd                      (ehemals BGMS)                                                        55130Mainz                         Wilh.-Theodor-Römheld-Str. 15 0000000000000000000072000     19000101                       009090123456789                                        #########                                                                                             0        
UVSD2010010152742028       52742028       12079033500800BG Metall Süd                      (ehemals BGMS)                                                        55130Mainz                         Wilh.-Theodor-Römheld-Str. 15 0000000000000000000072000     19000101                       009090123456789                                        #########                                                                                             0        
UVSD2011010152742028       52742028       12079033500800BG Holz und Metall                 (ehemals BGM)                                                         55130Mainz                         Wilh.-Theodor-Römheld-Str. 15 0000000000000000000072000     19000101                       009090123456789                                        #########                                                                                             0        
UVSD2012010152742028       52742028       12079033500800BG Holz und Metall                 (ehemals BGM)                                                         55130Mainz                         Wilh.-Theodor-Römheld-Str. 15 0000000000000000000084000     19000101                       009090123456789                                        #########                                                                                             0        
UVSD2017010152742028       52742028       12079033500800BG Holz und Metall                                                                                       55124Mainz                         Isaac-Fulda-Allee 18          0000000000000000000084000     19000101                       009090123456789                                        #########                                                                                             0        
UVSD2009010137916971       37916971       12059044601000BGETEM                             (ehemals BGETE)                                                       50968Köln                          Gustav-Heinemann-Ufer 130     0000000000000000000072000     190001012009033137916971       008160123456789%-                                      #######@:# ### ###-@                                                                                090        
UVSD2009040137916971       37916971       12059044601000BGETEM                             (ehemals BGETE)                                                       50968Köln                          Gustav-Heinemann-Ufer 130     0000000000000000000072000     20090401                       008160123456789%-                                      #######@:# ### ###-@                                                                                090        
UVSD2010010137916971       37916971       12059044601000BGETEM                             (ehemals BGETE)                                                       50968Köln                          Gustav-Heinemann-Ufer 130     0000000000000000000072000     20100101                       008160123456789%-                                      #######@:# ### ###-@                                                                                090        
UVSD2011010137916971       37916971       12059044601000BGETEM                             (ehemals BGETE)                                                       50968Köln                          Gustav-Heinemann-Ufer 130     0000000000000000000075000     20090401                       008160123456789%-                                      #######@:# ### ###-@                                                                                090        
UVSD2012010137916971       37916971       12059044601000BGETEM                             Hauptverwaltung                                                       50968Köln                          Gustav-Heinemann-Ufer 130     0000000000000000000084000     20090401                       008160123456789%-                                      #######@:# ### ###-@                                                                                090        
UVSD2009010161635458       61635458       12089050801100BG RCI - Chemie                    (ehemals BG Chemie)                                                   69115Heidelberg                    Kurfürsten-Anlage 62          0000000000000000000074400     188506062009123161635458       007090123456789/                                       (#/)#######:#########                                                                                 0        
UVSD2010010161635458       61635458       12089050801100BG RCI - Chemie                    (ehemals BG Chemie)                                                   69115Heidelberg                    Kurfürsten-Anlage 62          0000000000000000000074400     20100101                       007090123456789/                                       (#/)#######:#########                                                                                 0        
UVSD2016010161635458       61635458       12089050801100BG RCI - Chemie                    (ehemals BG Chemie)                                                   69115Heidelberg                    Kurfürsten-Anlage 62          0000000000000000000084000     18850606                       007090123456789/                                       (#/)#######:#########                                                                                 0        
UVSD2009010187741942       87741942       12099057601200Holz-BG                                                                                                  81236München                       Am Knie 8                     0000000000000000000063000     19750101                       009110123456789%                                       #########                                                                                             0        
UVSD2010010187741942       87741942       12099057601200Holz-BG                                                                                                  81236München                       Am Knie 8                     0000000000000000000072000     19750101                       009110123456789%                                       #########                                                                                             0        
UVSD2011010187741942       87741942       12099057601200BG Holz und Metall                 (ehemals HBG)                                                         81241München                       Am Knie 8                     0000000000000000000072000     19000101                       009110123456789%                                       #########                                                                                             0        
UVSD2012010187741942       87741942       12099057601200BG Holz und Metall                 (ehemals HBG)                                                         55130Mainz                         Wilh.-Theodor-Römheld-Str. 15 0000000000000000000084000     19000101                       009110123456789%                                       #########                                                                                             0        
UVSD2012100187741942       87741942       12099057601200BG Holz und Metall                 (ehemals HBG)                                                         55130Mainz                         Wilh.-Theodor-Römheld-Str. 15 0000000000000000000084000     190001012012123152742028       009110123456789%                                       #########                                                                                             020121231
UVSD2009010118484827       18484827       12079064301400BG RCI - Papierherstellung         (ehemals Papiermacher-BG)                                             55127Mainz                         Lortzingstr. 2                0000000000000000000063000     188510012009123161635458       007090123456789                                        #########:#######                                                                                     0        
UVSD2010010161635458       18484827       12079064301400BG RCI - Papierherstellung         (ehemals Papiermacher-BG)                                             55127Mainz                         Lortzingstr. 2                0000000000000000000074400     20100101                       007090123456789                                        #########:#######                                                                                     0        
UVSD2016010161635458       18484827       12079064301400BG RCI - Papierherstellung         (ehemals Papiermacher-BG)                                             55127Mainz                         Lortzingstr. 2                0000000000000000000084000     20100101                       007090123456789                                        #########:#######                                                                                     0        
UVSD2009010148626018       48626018       12069066401500BGETEM - Druck und Papierverarb.   (ehemals BG Druck und Papier)                                         65185Wiesbaden                     Rheinstraße 6-8               0000000000000000000063000     19520101                       010120123456789%-                                      #########1:###### ### 1:######-###-1                                                                  0        
UVSD2010010148626018       48626018       12069066401500BGETEM - Druck und Papierverarb.   (ehemals BG Druck und Papier)                                         65185Wiesbaden                     Rheinstraße 6-8               0000000000000000000072000     19520101                       010120123456789%-                                      #########1:###### ### 1:######-###-1                                                                  0        
UVSD2011010148626018       48626018       12069066401500BGETEM - Druck und Papierverarb.   (ehemals BG Druck und Papier)                                         65185Wiesbaden                     Rheinstraße 6-8               0000000000000000000075000     19520101                       010120123456789%-                                      #########1:###### ### 1:######-###-1                                                                  0        
UVSD2012010148626018       48626018       12069066401500BGETEM - Druck und Papierverarb.   (ehemals BG Druck und Papier)                                         65185Wiesbaden                     Rheinstraße 6-8               0000000000000000000075000     19520101                       010120123456789%-                                      #########1:###### ### 1:######-###-1                                                                  0        
UVSD2013010148626018       48626018       12069066401500BGETEM - Druck und Papierverarb.   (ehemals BG Druck und Papier)                                         65185Wiesbaden                     Rheinstraße 6-8               0000000000000000000078000     195201012014123137916971       010120123456789%-                                      #########1:###### ### 1:######-###-1                                                                  020141231
UVSD2009010152717470       52717470       12079072301600BG RCI - Lederindustrie            (ehemals Lederindustrie-BG)                                           55127Mainz                         Lortzingstr. 2                0000000000000000000063000     188510012009123161635458       007090123456789                                        #########:#######                                                                                     0        
UVSD2010010161635458       52717470       12079072301600BG RCI - Lederindustrie            (ehemals Lederindustrie-BG)                                           55127Mainz                         Lortzingstr. 2                0000000000000000000074400     20100101                       007090123456789                                        #########:#######                                                                                     0        
UVSD2016010161635458       52717470       12079072301600BG RCI - Lederindustrie            (ehemals Lederindustrie-BG)                                           55127Mainz                         Lortzingstr. 2                0000000000000000000084000     20100101                       007090123456789                                        #########:#######                                                                                     0        
UVSD2009010163800761       63800761       12089078001800BGN                                                                                                      68165Mannheim                      Dynamostraße 7-11             0000000000000000000062400     18850521                       111200123456789m%.-                                    (MM( ))7#(.)###(.)###(.)##@:##( )####( )###( )#@:(MM( ))##(.)###(.)###(.)##@-##                     130        
UVSD2014010163800761       63800761       12089078001800BGN                                                                                                      68165Mannheim                      Dynamostraße 7-11             0000000000000000000072000     18850521                       111200123456789m%.-                                    (MM( ))7#(.)###(.)###(.)##@:##( )####( )###( )#@:(MM( ))##(.)###(.)###(.)##@-##                     130        
UVSD2018010163800761       63800761       12089078001800BGN                                                                                                      68165Mannheim                      Dynamostraße 7-11             0000000000000000000084000     18850521                       111200123456789m%.-                                    (MM( ))7#(.)###(.)###(.)##@:##( )####( )###( )#@:(MM( ))##(.)###(.)###(.)##@-##                     130        
UVSD2009010152738475       52738475       12079084701900Fleischerei-BG                                                                                           55127Mainz                         Lortzingstraße 2              0000000000000000000072000     189701012010123163800761       007080123456789.,                                      ##([.|,])#####                                                                                        0        
UVSD2011010163800761       52738475       12079084701900BGN, Bereich Fleischwirtschaft     (ehemals Fleischerei-BG)                                              55127Mainz                         Lortzingstraße 2              0000000000000000000072000     20110101                       007080123456789.,                                      ##([.|,])#####                                                                                        0        
UVSD2015010163800761       52738475       12079084701900BGN, Sparte Fleischwirtschaft      (ehemals Fleischerei-BG)                                              55127Mainz                         Lortzingstraße 2              0000000000000000000072000     20110101                       007080123456789.,                                      ##([.|,])#####                                                                                        0        
UVSD2018010163800761       52738475       12079084701900BGN, Sparte Fleischwirtschaft      (ehemals Fleischerei-BG)                                              55127Mainz                         Lortzingstraße 2              0000000000000000000084000     20110101                       007080123456789.,                                      ##([.|,])#####                                                                                        0        
UVSD2009010118484877       18484877       12039086502000BG RCI - Zucker                    (ehemals Zucker-BG)                                                   55127Mainz                         Lortzingstr. 2                0000000000000000000063000     188509012009123161635458       007090123456789                                        #########:#######                                                                                     0        
UVSD2010010161635458       18484877       12039086502000BG RCI - Zucker                    (ehemals Zucker-BG)                                                   55127Mainz                         Lortzingstr. 2                0000000000000000000074400     20100101                       007090123456789                                        #########:#######                                                                                     0        
UVSD2016010161635458       18484877       12039086502000BG RCI - Zucker                    (ehemals Zucker-BG)                                                   55127Mainz                         Lortzingstr. 2                0000000000000000000084000     20100101                       007090123456789                                        #########:#######                                                                                     0        
UVSD2009010163886548       32064004       12059113003000BGHW                                                                                                     53113Bonn                          Niebuhrstr. 5                 0000000000000000000072000     20080101                       010100123456789-                                       ####-#####                                                                                            0        
UVSD2009010163886548       63886548       12089105303000BGHW                                                                                                     68161Mannheim                      M 5, 7                        0000000000000000000072000     20080101                       008080123456789                                        #######@                                                                                            14020131231
UVSD2009010115250094       15250094       12029118203100VBG                                                                                                      22297Hamburg                       Deelbögenkamp 4               0000000000000000000084000     19000101                       010100123456789                                        #########@                                                                                          040        
UVSD2014010115250094       15250094       12029118203100VBG                                                                                                      22297Hamburg                       Deelbögenkamp 4               0000000000000000000096000     19000101                       010100123456789                                        #########@                                                                                          040        
UVSD2018010115250094       15250094       12029118203100VBG                                                                                                      22305Hamburg                       Massaquoipassage 1            0000000000000000000096000     19000101                       010100123456789                                        #########@                                                                                          040        
UVSD2009010115197214       15197214       12029125103200VBG                                (ehemals BG Bahnen)                                                   20354Hamburg                       Fontenay 1 a                  0000000000000000000072000     188510012009123115250094       009090123456789                                        #########                                                                                             020091231
UVSD2009010115141364       15141364       12029129503300BG Verkehr - Fahrzeughaltungen     (ehemals BG für Fahrzeughaltungen)                                    22765Hamburg                       Ottenser Hauptstraße 54       15372     18144     72000     20050101                       009090123456789                                        0#######@                                                                                           020        
UVSD2010010115141364       15141364       12029129503300BG Verkehr - Fahrzeughaltungen     (ehemals BG für Fahrzeughaltungen)                                    22765Hamburg                       Ottenser Hauptstraße 54       15624     18396     72000     20050101                       009090123456789                                        0#######@                                                                                           020        
UVSD2011010115141364       15141364       12029129503300BG Verkehr - Fahrzeughaltungen     (ehemals BG für Fahrzeughaltungen)                                    22765Hamburg                       Ottenser Hauptstraße 54       16128     18396     72000     20050101                       009090123456789                                        0#######@                                                                                           020        
UVSD2012010115141364       15141364       12029129503300BG Verkehr - Fahrzeughaltungen     (ehemals BG für Fahrzeughaltungen)                                    22765Hamburg                       Ottenser Hauptstraße 54       16128     18900     72000     20050101                       009090123456789                                        0#######@                                                                                           020        
UVSD2013010115141364       15141364       12029129503300BG Verkehr - Fahrzeughaltungen     (ehemals BG für Fahrzeughaltungen)                                    22765Hamburg                       Ottenser Hauptstraße 54       16380     19404     72000     20050101                       009090123456789                                        0#######@                                                                                           020        
UVSD2014010115141364       15141364       12029129503300BG Verkehr - Fahrzeughaltungen     (ehemals BG für Fahrzeughaltungen)                                    22765Hamburg                       Ottenser Hauptstraße 54       16884     19908     72000     20050101                       009090123456789                                        0#######@                                                                                           020        
UVSD2015010115141364       15141364       12029129503300BG Verkehr - Fahrzeughaltungen     (ehemals BG für Fahrzeughaltungen)                                    22765Hamburg                       Ottenser Hauptstraße 54       0000000000000000000072000     20050101                       009090123456789                                        0#######@                                                                                           020        
UVSD2009010199011352       99011352       12029136403400BG Verkehr - Seeschifffahrt        (ehemals See-BG)                                                      20457Hamburg                       Reimerstwiete 2               0000000000000000000072000     188711092009123115141364       008080123456789                                        099#####:99[0|1|2]#####                                                                               0        
UVSD2010010115141364       99011352       12029136403400BG Verkehr - Seeschifffahrt        (ehemals See-BG)                                                      22765Hamburg                       Ottenser Hauptstraße 54       0000000000000000000072000     20100101                       008080123456789                                        099#####:99[0|1|2]#####                                                                               0        
UVSD2009010115186676       15186676       12029233203600BGW Gesundheitsd. und Wohlfahrtspf.                                                                      22089Hamburg                       Pappelallee 35/37             0000000000000000000072000     19290628                       010100123456789abcdefghijklms                          [M|S|F|A]######@00                                                                                  030        
UVSD2011010115186676       15186676       12029233203600BGW Gesundheitsd. und Wohlfahrtspf.                                                                      22089Hamburg                       Pappelallee 35/37             0000000000000000000084000     19290628                       010100123456789abcdefghijklms                          [M|S|F|A]######@00                                                                                  030        
UVSD2012010114066582       14066582       12059093603700BG Bau                                                                                                   10715Berlin                        Hildegardstr. 29/30           0000000000000000000062400     20050501                       107200123456789/-befnmxz%.                             (M[M|E]( ))##(.)###(.)###(.)##@:##( )###( )###( )##@:%/#######-@:(M[M|E]( ))##(.)###(.)###(.)##@-## 980        
UVSD2013010114066582       14066582       12119234403700BG Bau                                                                                                   10715Berlin                        Hildegardstr. 29/30           0000000000000000000064680     20050501                       107200123456789/-befnmxz%.                             (M[M|E]( ))##(.)###(.)###(.)##@:##( )###( )###( )##@:%/#######-@:(M[M|E]( ))##(.)###(.)###(.)##@-## 980        
UVSD2014010114066582       14066582       12119234403700BG Bau                                                                                                   10715Berlin                        Hildegardstr. 29/30           0000000000000000000066360     20050501                       107200123456789/-befnmxz%.                             (M[M|E]( ))##(.)###(.)###(.)##@:##( )###( )###( )##@:%/#######-@:(M[M|E]( ))##(.)###(.)###(.)##@-## 980        
UVSD2015010114066582       14066582       12119234403700BG Bau                                                                                                   10715Berlin                        Hildegardstr. 29/30           0000000000000000000068040     20050501                       107200123456789/-befnmxz%.                             (M[M|E]( ))##(.)###(.)###(.)##@:##( )###( )###( )##@:%/#######-@:(M[M|E]( ))##(.)###(.)###(.)##@-## 980        
UVSD2016010114066582       14066582       12119234403700BG Bau                                                                                                   10715Berlin                        Hildegardstr. 29/30           0000000000000000000069720     20050501                       107200123456789/-befnmxz%.                             (M[M|E]( ))##(.)###(.)###(.)##@:##( )###( )###( )##@:%/#######-@:(M[M|E]( ))##(.)###(.)###(.)##@-## 980        
UVSD2017010114066582       14066582       12119234403700BG Bau                                                                                                   10715Berlin                        Hildegardstr. 29/30           0000000000000000000071400     20050501                       107200123456789/-befnmxz%.                             (M[M|E]( ))##(.)###(.)###(.)##@:##( )###( )###( )##@:%/#######-@:(M[M|E]( ))##(.)###(.)###(.)##@-## 980        
UVSD2018010114066582       14066582       12119234403700BG Bau                                                                                                   10715Berlin                        Hildegardstr. 29/30           0000000000000000000073080     20050501                       107200123456789/-befnmxz%.                             (M[M|E]( ))##(.)###(.)###(.)##@:##( )###( )###( )##@:%/#######-@:(M[M|E]( ))##(.)###(.)###(.)##@-## 980        
UVSD2009010114066582       15087927       12029087503710BG BAU Bezirk Hamburg                                                                                    20355Hamburg                       Holstenwall 8-9               0000000000000000000062400     20050501                       110170123456789m%.                                     #########@:(MM( ))##(.)###(.)###(.)##@:##( )###( )###( )##@                                         99020111231
UVSD2009010114066582       29036720       12039088703720BG BAU Bezirk Hannover                                                                                   30519Hannover                      Hildesheimerstr. 309          0000000000000000000062400     20050501                       110170123456789m%.                                     #########@:(MM( ))##(.)###(.)###(.)##@:##( )###( )###( )##@                                         99020111231
UVSD2009010114066582       42884688       12059092503730BG BAU Bezirk Wuppertal                                                                                  42115Wuppertal                     Viktoriastraße 21             0000000000000000000062400     20050501                       109170123456789/-befnxzm%.                             %/#######-@:(MM( ))##(.)###(.)###(.)##@:##( )###( )###( )##@                                        98020111231
UVSD2009010114066582       44888436       12069095903740BG BAU Bezirk Frankfurt                                                                                  60389Frankfurt                     An der Festeburg 27-29        0000000000000000000062400     20050501                       110170123456789m%                                      #########@:(MM( ))##########@:##( )###( )###( )##@                                                  99020111231
UVSD2009010114066582       62279404       12089096203750BG BAU Bezirk Karlsruhe                                                                                  76135Karlsruhe                     Steinhäuserstr. 10            0000000000000000000062400     20050501                       110170123456789m/-%.                                   ##(/)###(-)####(-)@:(MM( ))##(.)###(.)###(.)##@:##( )###( )###( )##@                                97020111231
UVSD2009010114066582       67350937       12089098403760BG BAU Bezirk Böblingen                                                                                  71032Böblingen                     Friedrich-Gerstlacher-Str. 15 0000000000000000000062400     20050501                       111170123456789m%.                                     (MM( ))##(.)###(.)###(.)##@:##( )###( )###( )##@                                                    15020111231
UVSD2009010114066582       87661138       12099099603773BG BAU Bezirk München (Hochbau)                                                                          80335München                       Loristraße 8                  0000000000000000000062400     20050501                       107170123456789m%.                                     ######@(( )###):(MM( ))##(.)###(.)###(.)##@:##( )###( )###( )##@                                    96020111231
UVSD2009010114066582       87661183       12099100903780BG BAU Bezirk München (Tiefbau)                                                                          81241München                       Am Knie 6                     0000000000000000000062400     20050501                       107170123456789m%.kl-                                  ######@(-[1|3|5|6]-[M|K|L]):(MM( ))##(.)###(.)###(.)##@:##( )###( )###( )##@                        95020111231
UVSD2016010128143238       28143238       12039203724000Unfallversicherung Bund und Bahn   Bereich Bund                                                          26382Wilhelmshaven                 Weserstrasse 47               0000000000000000000080178     20030101                       0                                                                                                                                                            2        
UVSD2017010128143238       28143238       12039203724000Unfallversicherung Bund und Bahn   Bereich Bund                                                          26382Wilhelmshaven                 Weserstrasse 47               0000000000000000000082110     20030101                       0                                                                                                                                                            2        
UVSD2018010128143238       28143238       12039203724000Unfallversicherung Bund und Bahn   Bereich Bund                                                          26382Wilhelmshaven                 Weserstrasse 47               0000000000000000000084042     20030101                       0                                                                                                                                                            2        
UVSD2016010149005902       49005902       12069204124000Unfallversicherung Bund und Bahn   Bereich Bahn                                                          60487Frankfurt                     Salvador-Allende-Straße 9     0000000000000000000080178     19940101                       004100123456789                                        ####:##########                                                                                       0        
UVSD2017010149005902       49005902       12069204124000Unfallversicherung Bund und Bahn   Bereich Bahn                                                          60487Frankfurt                     Salvador-Allende-Straße 9     0000000000000000000082110     19940101                       004100123456789                                        ####:##########                                                                                       0        
UVSD2018010149005902       49005902       12069204124000Unfallversicherung Bund und Bahn   Bereich Bahn                                                          60487Frankfurt                     Salvador-Allende-Straße 9     0000000000000000000084042     19940101                       004100123456789                                        ####:##########                                                                                       0        
UVSD2009010113174962       13174962       12019271838000LBG Schleswig-Holstein und Hamburg                                                                       24143Kiel                          Schulstraße 29                0000000000000000000060480     20070101                       0                                                                                                                                                            1        
UVSD2010010113174962       13174962       12019271838000LBG Schleswig-Holstein und Hamburg                                                                       24143Kiel                          Schulstraße 29                0000000000000000000061320     20070101                       0                                                                                                                                                            1        
UVSD2012010113174962       13174962       12019271838000LBG Schleswig-Holstein und Hamburg                                                                       24143Kiel                          Schulstraße 29                0000000000000000000063000     20070101                       0                                                                                                                                                            1        
UVSD2013010113174962       13174962       12019271838000SVLFG, LBG, Standort Kiel                                                                                24143Kiel                          Schulstraße 29                0000000000000000000072000     20070101                       0                                                                                                                                                            1        
UVSD2009010129139336       29139336       12039273240000LBG Niedersachsen-Bremen                                                                                 30173Hannover                      Im Haspelfelde 24             0000000000000000000060480     20070101                       0                                                                                                                                                            1        
UVSD2010010129139336       29139336       12039273240000LBG Niedersachsen-Bremen                                                                                 30173Hannover                      Im Haspelfelde 24             0000000000000000000061320     20070101                       0                                                                                                                                                            1        
UVSD2012010129139336       29139336       12039273240000LBG Niedersachsen-Bremen                                                                                 30173Hannover                      Im Haspelfelde 24             0000000000000000000063000     20070101                       0                                                                                                                                                            1        
UVSD2013010129139336       29139336       12039273240000SVLFG, LBG, Standort Hannover                                                                            30173Hannover                      Im Haspelfelde 24             0000000000000000000072000     20070101                       0                                                                                                                                                            1        
UVSD2009010139892693       39892693       12059277844000LBG Nordrhein-Westfalen                                                                                  48147Münster                       Hoher Heckenweg               0000000000000000000060480     20070101                       0                                                                                                                                                            1        
UVSD2010010139892693       39892693       12059277844000LBG Nordrhein-Westfalen                                                                                  48147Münster                       Hoher Heckenweg               0000000000000000000076650     20070101                       0                                                                                                                                                            1        
UVSD2012010139892693       39892693       12059277844000LBG Nordrhein-Westfalen                                                                                  48147Münster                       Hoher Heckenweg               0000000000000000000078750     20070101                       0                                                                                                                                                            1        
UVSD2013010139892693       39892693       12059277844000SVLFG, LBG, Standort Münster                                                                             48147Münster                       Hoher Heckenweg               0000000000000000000072000     20070101                       0                                                                                                                                                            1        
UVSD2009010147042806       47042806       12069278046000LBG Hessen,Rheinl.-Pfalz, Saarland                                                                       34119Kassel                        Luisenstraße 12               0000000000000000000060480     20070101                       0                                                                                                                                                            1        
UVSD2010010147042806       47042806       12069278046000LBG Hessen,Rheinl.-Pfalz, Saarland                                                                       34119Kassel                        Luisenstraße 12               0000000000000000000061320     20070101                       0                                                                                                                                                            1        
UVSD2012010147042806       47042806       12069278046000LBG Hessen,Rheinl.-Pfalz, Saarland                                                                       34119Kassel                        Luisenstraße 12               0000000000000000000063000     20070101                       0                                                                                                                                                            1        
UVSD2013010147042806       47042806       12069278046000SVLFG, LBG, Standort Darmstadt                                                                           34119Kassel                        Luisenstraße 12               0000000000000000000072000     20070101                       0                                                                                                                                                            1        
UVSD2009010172305544       72305544       12099282949000LBG Franken Oberbayern                                                                                   95444Bayreuth                      Dammwäldchen 4                0000000000000000000060480     20070101                       0                                                                                                                                                            1        
UVSD2010010172305544       72305544       12099282949000LBG Franken Oberbayern                                                                                   95444Bayreuth                      Dammwäldchen 4                0000000000000000000061320     20070101                       0                                                                                                                                                            1        
UVSD2012010172305544       72305544       12099282949000LBG Franken Oberbayern                                                                                   95444Bayreuth                      Dammwäldchen 4                0000000000000000000063000     20070101                       0                                                                                                                                                            1        
UVSD2013010172305544       72305544       12099282949000SVLFG, LBG, Standort Bayreuth                                                                            95444Bayreuth                      Dammwäldchen 4                0000000000000000000072000     20070101                       0                                                                                                                                                            1        
UVSD2009010187108525       87108525       12099283050000LBG Niederbayern/Oberpf., Schwaben                                                                       84036Landshut                      Dr. Georg Heim Allee 1        0000000000000000000060480     20070101                       0                                                                                                                                                            1        
UVSD2010010187108525       87108525       12099283050000LBG Niederbayern/Oberpf., Schwaben                                                                       84036Landshut                      Dr. Georg Heim Allee 1        0000000000000000000061320     20070101                       0                                                                                                                                                            1        
UVSD2012010187108525       87108525       12099283050000LBG Niederbayern/Oberpf., Schwaben                                                                       84036Landshut                      Dr. Georg Heim Allee 1        0000000000000000000063000     20070101                       0                                                                                                                                                            1        
UVSD2013010187108525       87108525       12099283050000SVLFG, LBG, Standort Landshut                                                                            84036Landshut                      Dr. Georg Heim Allee 1        0000000000000000000072000     20070101                       0                                                                                                                                                            1        
UVSD2009010167545123       67545123       12089288454000LBG Baden-Württemberg                                                                                    70199Stuttgart                     Vogelrainstraße 25            0000000000000000000060480     20070101                       0                                                                                                                                                            1        
UVSD2010010167545123       67545123       12089288454000LBG Baden-Württemberg                                                                                    70199Stuttgart                     Vogelrainstraße 25            0000000000000000000061320     20070101                       0                                                                                                                                                            1        
UVSD2012010167545123       67545123       12089288454000LBG Baden-Württemberg                                                                                    70199Stuttgart                     Vogelrainstraße 25            0000000000000000000063000     20070101                       0                                                                                                                                                            1        
UVSD2013010167545123       67545123       12089288454000SVLFG, LBG, Standort Stuttgart                                                                           70199Stuttgart                     Vogelrainstraße 25            0000000000000000000072000     20070101                       0                                                                                                                                                            1        
UVSD2009010147009510       47009510       12069289356000BG Gartenbau                                                                                             34121Kassel                        Frankfurter Straße 126        0000000000000000000060480     20070101                       0                                                                                                                                                            1        
UVSD2010010147009510       47009510       12069289356000BG Gartenbau                                                                                             34121Kassel                        Frankfurter Straße 126        0000000000000000000072000     20070101                       0                                                                                                                                                            1        
UVSD2013010147009510       47009510       12069289356000SVLFG, LBG, Standort Kassel        (ehemals Gartenbau-BG)                                                34121Kassel                        Frankfurter Straße 126        0000000000000000000072000     20070101                       0                                                                                                                                                            1        
UVSD2009010108270878       08270878       12119292557000LBG Mittel- und Ostdeutschland                                                                           15366Hoppegarten                   Hoppegartener Straße 100      0000000000000000000060480     20070101                       0                                                                                                                                                            1        
UVSD2010010108270878       08270878       12119292557000LBG Mittel- und Ostdeutschland                                                                           15366Hoppegarten                   Hoppegartener Straße 100      0000000000000000000061320     20070101                       0                                                                                                                                                            1        
UVSD2012010108270878       08270878       12119292557000LBG Mittel- und Ostdeutschland                                                                           15366Hoppegarten                   Hoppegartener Straße 100      0000000000000000000063000     20070101                       0                                                                                                                                                            1        
UVSD2013010108270878       08270878       12119292557000SVLFG, LBG, Standort Hoppegarten                                                                         15366Hoppegarten                   Hoppegartener Straße 100      0000000000000000000072000     20070101                       0                                                                                                                                                            1        
UVSD2009010167334480       67334480       12089183858000UK Baden-Württemberg                                                                                     70329Stuttgart                     Augsburger Str. 700           0000000000000000000072000     20040101                       010170123456789%                                       ### ######:### ###### #:### ###### ######:### ###### ###:### ###### # ###                             3        
UVSD2014010167334480       67334480       12089183858000UK Baden-Württemberg                                                                                     70329Stuttgart                     Augsburger Str. 700           0000000000000000000084000     20040101                       010170123456789%                                       ### ######:### ###### #:### ###### ######:### ###### ###:### ###### # ###                             3        
UVSD2009010187661207       87661207       12099173759000Bayerischer GUVV                                                                                         80805München                       Ungererstraße 71              0000000000000000000072000     20000101                       006060123456789                                        ######                                                                                                3        
UVSD2011010187661207       87661207       12099173759000Bayerischer GUVV                                                                                         80805München                       Ungererstraße 71              0000000000000000000081000     20000101                       006060123456789                                        ######                                                                                                3        
UVSD2012010187661207       87661207       12099173759000Kommunale Unfallversicherung Bayern(ehemals Bayerischer GUVV)                                            80805München                       Ungererstraße 71              0000000000000000000081000     20000101                       006060123456789                                        ######                                                                                                3        
UVSD2017010187661207       87661207       12099173759000Kommunale Unfallversicherung Bayern                                                                      80805München                       Ungererstraße 71              0000000000000000000081000     20000101                       006060123456789                                        ######                                                                                                3        
UVSD2009010121204943       21204943       12039174260000Braunschweigischer GUVV                                                                                  38102Braunschweig                  Berliner Platz 1 c            0000000000000000000075600     19360101                       0                                                                                                                                                            2        
UVSD2010010121204943       21204943       12039174260000Braunschweigischer GUVV                                                                                  38102Braunschweig                  Berliner Platz 1 c            0000000000000000000076650     19360101                       0                                                                                                                                                            2        
UVSD2009010120345417       20345417       12049175461000UK Bremen                                                                                                28215Bremen                        Walsroder Str. 12 -14         0000000000000000000072000     19370305                       0                                                                                                                                                            3        
UVSD2012010120345417       20345417       12049175461000UK Bremen                                                                                                28215Bremen                        Walsroder Str. 12 -14         0000000000000000000078750     19370305                       0                                                                                                                                                            3        
UVSD2013010120345417       20345417       12049175461000UK Bremen                                                                                                28215Bremen                        Walsroder Str. 12 -14         0000000000000000000080850     19370305                       0                                                                                                                                                            3        
UVSD2014010120345417       20345417       12049175461000UK Bremen                                                                                                28215Bremen                        Walsroder Str. 12 -14         0000000000000000000082950     19370305                       0                                                                                                                                                            3        
UVSD2015010120345417       20345417       12049175461000UK Bremen                                                                                                28217Bremen                        Konsul-Smidt-Str. 76a         0000000000000000000085050     19370305                       0                                                                                                                                                            3        
UVSD2016010120345417       20345417       12049175461000UK Bremen                                                                                                28217Bremen                        Konsul-Smidt-Str. 76a         0000000000000000000087150     19370305                       0                                                                                                                                                            3        
UVSD2017010120345417       20345417       12049175461000UK Bremen                                                                                                28217Bremen                        Konsul-Smidt-Str. 76a         0000000000000000000089250     19370305                       0                                                                                                                                                            3        
UVSD2018010120345417       20345417       12049175461000UK Bremen                                                                                                28217Bremen                        Konsul-Smidt-Str. 76a         0000000000000000000091350     19370305                       0                                                                                                                                                            3        
UVSD2009010129086457       29086457       12039176462000GUV Hannover                                                                                             30519Hannover                      Am Mittelfelde 169            0000000000000000000075600     20090101                       014140123456789.                                                                                                                                             2        
UVSD2010010129086457       29086457       12039176462000GUV Hannover                                                                                             30519Hannover                      Am Mittelfelde 169            0000000000000000000076650     20090101                       014140123456789.                                                                                                                                             2        
UVSD2009010126125562       26125562       12039178664000GUV Oldenburg                                                                                            26122Oldenburg                     Gartenstr. 9                  0000000000000000000075600     19360101                       0                                                                                                                                                            2        
UVSD2010010126125562       26125562       12039178664000GUV Oldenburg                                                                                            26122Oldenburg                     Gartenstr. 9                  0000000000000000000076650     19360101                       0                                                                                                                                                            2        
UVSD2009010128143238       28143238       12039203771000Unfallkasse des Bundes                                                                                   26382Wilhelmshaven                 Weserstrasse                  0000000000000000000060480     20030101                       0                                                                                                                                                            2        
UVSD2010010128143238       28143238       12039203771000Unfallkasse des Bundes                                                                                   26382Wilhelmshaven                 Weserstrasse                  0000000000000000000061320     20030101                       0                                                                                                                                                            2        
UVSD2015010128143238       28143238       12039203771000Unfallversicherung Bund und Bahn   Bereich Bund                                                          26382Wilhelmshaven                 Weserstrasse                  0000000000000000000061320     20030101                       0                                                                                                                                                            2        
UVSD2009010149005902       49005902       12069204172000Eisenbahn-UK                                                                                             60487Frankfurt                     Rödelheimer Straße 49         0000000000000000000072000     19940101                       004100123456789                                        ####:##########                                                                                       0        
UVSD2012010149005902       49005902       12069204172000Eisenbahn-UK                                                                                             60487Frankfurt                     Salvador-Allende-Straße 9     0000000000000000000072000     19940101                       004100123456789                                        ####:##########                                                                                       0        
UVSD2013010149005902       49005902       12069204172000Eisenbahn-UK                                                                                             60487Frankfurt                     Salvador-Allende-Straße 9     0000000000000000000077000     19940101                       004100123456789                                        ####:##########                                                                                       0        
UVSD2014010149005902       49005902       12069204172000Eisenbahn-UK                                                                                             60487Frankfurt                     Salvador-Allende-Straße 9     0000000000000000000077000     19940101                       004100123456789                                        ####:##########                                                                                       0        
UVSD2015010149005902       49005902       12069204172000Unfallversicherung Bund und Bahn   Bereich Bahn                                                          60487Frankfurt                     Salvador-Allende-Straße 9     0000000000000000000078246     19940101                       004100123456789                                        ####:##########                                                                                       0        
UVSD2009010166337061       66337061       12089230573000UK Post und Telekom                                                                                      72072Tübingen                      Europaplatz 2                 0000000000000000000062400     19950101                       004040123456789                                        ####                                                                                                  0        
UVSD2012010166337061       66337061       12089230573000UK Post und Telekom                                                                                      72072Tübingen                      Europaplatz 2                 0000000000000000000072000     199501012015123115141364       004040123456789                                        ####                                                                                                  0        
UVSD2016010115141364       66337061       12089230573000BG Verkehr - Post und Telekom      (ehemals UK Post und Telekom)                                         72072Tübingen                      Europaplatz 2                 0000000000000000000072000     20160101                       004040123456789                                        ####                                                                                                  0        
UVSD2009010190276713       90276713       12119191375000UK Berlin                                                                                                12277Berlin                        Culemeyerstraße 2             0000000000000000000069552     19980101                       009090123456789                                        #########                                                                                             3        
UVSD2010010190276713       90276713       12119191375000UK Berlin                                                                                                12277Berlin                        Culemeyerstraße 2             0000000000000000000070518     19980101                       009090123456789                                        #########                                                                                             3        
UVSD2012010190276713       90276713       12119191375000UK Berlin                                                                                                12277Berlin                        Culemeyerstraße 2             0000000000000000000072450     19980101                       009090123456789                                        #########                                                                                             3        
UVSD2013010190276713       90276713       12119191375000UK Berlin                                                                                                12277Berlin                        Culemeyerstraße 2             0000000000000000000074382     19980101                       009090123456789                                        #########                                                                                             3        
UVSD2014010190276713       90276713       12119191375000UK Berlin                                                                                                12277Berlin                        Culemeyerstraße 2             0000000000000000000076314     19980101                       009090123456789                                        #########                                                                                             3        
UVSD2015010190276713       90276713       12119191375000UK Berlin                                                                                                12277Berlin                        Culemeyerstraße 2             0000000000000000000078246     19980101                       009090123456789                                        #########                                                                                             3        
UVSD2016010190276713       90276713       12119191375000UK Berlin                                                                                                12277Berlin                        Culemeyerstraße 2             0000000000000000000080178     19980101                       009090123456789                                        #########                                                                                             3        
UVSD2017010190276713       90276713       12119191375000UK Berlin                                                                                                12277Berlin                        Culemeyerstraße 2             0000000000000000000082110     19980101                       009090123456789                                        #########                                                                                             3        
UVSD2018010190276713       90276713       12119191375000UK Berlin                                                                                                12277Berlin                        Culemeyerstraße 2             0000000000000000000084042     19980101                       009090123456789                                        #########                                                                                             3        
UVSD2009010102379637       02379637       12129000376400UK und Feuerw.-UK Brandenburg                                                                            15236Frankfurt                     Müllroser Chaussee 75         0000000000000000000064050     19000101                       005100123456789H                                       #####:H#####:##########                                                                               3        
UVSD2010010102379637       02379637       12129000376400UK und Feuerw.-UK Brandenburg                                                                            15236Frankfurt                     Müllroser Chaussee 75         0000000000000000000065100     19000101                       005100123456789H                                       #####:H#####:##########                                                                               3        
UVSD2011010102379637       02379637       12129000376400UK und Feuerw.-UK Brandenburg                                                                            15236Frankfurt                     Müllroser Chaussee 75         0000000000000000000067200     19000101                       005100123456789H                                       #####:H#####:##########                                                                               3        
UVSD2013010102379637       02379637       12129000376400UK und Feuerw.-UK Brandenburg                                                                            15236Frankfurt                     Müllroser Chaussee 75         0000000000000000000068250     19000101                       005100123456789H                                       #####:H#####:##########                                                                               3        
UVSD2014010102379637       02379637       12129000376400UK und Feuerw.-UK Brandenburg                                                                            15236Frankfurt                     Müllroser Chaussee 75         0000000000000000000070350     19000101                       005100123456789H                                       #####:H#####:##########                                                                               3        
UVSD2015010102379637       02379637       12129000376400UK und Feuerw.-UK Brandenburg                                                                            15236Frankfurt                     Müllroser Chaussee 75         0000000000000000000072450     19000101                       005100123456789H                                       #####:H#####:##########                                                                               3        
UVSD2016010102379637       02379637       12129000376400UK und Feuerw.-UK Brandenburg                                                                            15236Frankfurt                     Müllroser Chaussee 75         0000000000000000000075600     19000101                       005100123456789H                                       #####:H#####:##########                                                                               3        
UVSD2017010102379637       02379637       12129000376400UK und Feuerw.-UK Brandenburg                                                                            15236Frankfurt                     Müllroser Chaussee 75         0000000000000000000079800     19000101                       005100123456789H                                       #####:H#####:##########                                                                               3        
UVSD2018010102379637       02379637       12129000376400UK und Feuerw.-UK Brandenburg                                                                            15236Frankfurt                     Müllroser Chaussee 75         0000000000000000000080850     19000101                       005100123456789H                                       #####:H#####:##########                                                                               3        
UVSD2009010116716004       16716004       12029193477000UK Nord                                                                                                  22083Hamburg                       Spohrstr. 2                   0000000000000000000075000     20080101                       005110123456789.                                       ####.###.##:#####:#####.##:##.#######:#######                                                         3        
UVSD2014010116716004       16716004       12029193477000UK Nord                                                                                                  22083Hamburg                       Spohrstr. 2                   0000000000000000000075000     20080101                       005110123456789.                                       ####.###.##:#####:#####.##:##.#######:#######                                                         2        
UVSD2009010103701377       03701377       12159003977400UK Sachsen-Anhalt                                                                                        39261Zerbst                        Käsperstrasse 31              0000000000000000000072000     19980101                       0                                                                                                                                                            2        
UVSD2009010188270171       88270171       12099194278000Bayerische LUK                                                                                           80805München                       Ungererstraße 71              0000000000000000000072000     20000101                       006060123456789                                        ######                                                                                                3        
UVSD2011010188270171       88270171       12099194278000Bayerische LUK                                                                                           80805München                       Ungererstraße 71              0000000000000000000081000     20000101                       006060123456789                                        ######                                                                                                3        
UVSD2009010101064065       01064065       12149011878400UK Sachsen                                                                                               01662Meißen                        Rosa-Luxemburg-Str. 17a       0000000000000000000061260     19980101                       006060123456789                                        ######                                                                                                3        
UVSD2017010101064065       01064065       12149011878400UK Sachsen                                                                                               01662Meißen                        Rosa-Luxemburg-Str. 17a       0000000000000000000063840     19980101                       006060123456789                                        ######                                                                                                3        
UVSD2018010101064065       01064065       12149011878400UK Sachsen                                                                                               01662Meißen                        Rosa-Luxemburg-Str. 17a       0000000000000000000064680     19980101                       006060123456789                                        ######                                                                                                3        
UVSD2009010144861264       44861264       12069219879400UK Hessen                                                                                                60486Frankfurt                     Leonardo-da-Vinci-Allee 20    0000000000000000000074400     19980101                       010130123456789/.                                                                                                                                            2        
UVSD2009010118626026       18626026       12039196880000LUK Niedersachsen                                                                                        30519Hannover                      Am Mittelfelde 169            0000000000000000000075600     20090101                       014140123456789.                                                                                                                                             2        
UVSD2010010118626026       18626026       12039196880000LUK Niedersachsen                                                                                        30519Hannover                      Am Mittelfelde 169            0000000000000000000076650     20090101                       014140123456789.                                                                                                                                             2        
UVSD2009010134239086       34239086       12059180282000UK Nordrhein-Westfalen                                                                                   40470Düsseldorf                    Sankt-Franziskus-Straße 146   0000000000000000000083160     20080101                       0                                                                                                                                                            2        
UVSD2010010134239086       34239086       12059180282000UK Nordrhein-Westfalen                                                                                   40470Düsseldorf                    Sankt-Franziskus-Straße 146   0000000000000000000084315     20080101                       0                                                                                                                                                            2        
UVSD2009010153149588       53149588       12079179183400UK Rheinland-Pfalz                                                                                       56626Andernach                     Orensteinstrasse 10           0000000000000000000068400     19980101                       010110123456789abcdefghijklmnopqrstuvwxyz              %%%%######:H##########                                                                                3        
UVSD2010010153149588       53149588       12079179183400UK Rheinland-Pfalz                                                                                       56626Andernach                     Orensteinstrasse 10           0000000000000000000075000     19980101                       010110123456789abcdefghijklmnopqrstuvwxyz              %%%%######:H##########                                                                                3        
UVSD2013010153149588       53149588       12079179183400UK Rheinland-Pfalz                                                                                       56626Andernach                     Orensteinstrasse 10           0000000000000000000075000     19980101                       010110123456789abcdefghijklmnopqrstuvwxyz              %%%%######:H##########                                                                                2        
UVSD2017010153149588       53149588       12079179183400UK Rheinland-Pfalz                                                                                       56626Andernach                     Orensteinstrasse 10           0000000000000000000089250     19980101                       010110123456789abcdefghijklmnopqrstuvwxyz              %%%%######:H##########                                                                                2        
UVSD2018010153149588       53149588       12079179183400UK Rheinland-Pfalz                                                                                       56626Andernach                     Orensteinstrasse 10           0000000000000000000091350     19980101                       010110123456789abcdefghijklmnopqrstuvwxyz              %%%%######:H##########                                                                                2        
UVSD2009010155423519       55423519       12109184386400UK Saarland                                                                                              66125Saarbrücken                   Beethovenstr. 41              0000000000000000000066000     20070101                       003070123456789                                        ###:#######                                                                                           3        
UVSD2010010155423519       55423519       12109184386400UK Saarland                                                                                              66125Saarbrücken                   Beethovenstr. 41              0000000000000000000068000     20070101                       003070123456789                                        ###:#######                                                                                           3        
UVSD2012010155423519       55423519       12109184386400UK Saarland                                                                                              66125Saarbrücken                   Beethovenstr. 41              0000000000000000000070000     20070101                       003070123456789                                        ###:#######                                                                                           3        
UVSD2013010155423519       55423519       12109184386400UK Saarland                                                                                              66125Saarbrücken                   Beethovenstr. 41              0000000000000000000072000     20070101                       003070123456789                                        ###:#######                                                                                           3        
UVSD2014010155423519       55423519       12109184386400UK Saarland                                                                                              66125Saarbrücken                   Beethovenstr. 41              0000000000000000000073000     20070101                       003070123456789                                        ###:#######                                                                                           3        
UVSD2015010155423519       55423519       12109184386400UK Saarland                                                                                              66125Saarbrücken                   Beethovenstr. 41              0000000000000000000075000     20070101                       003070123456789                                        ###:#######                                                                                           3        
UVSD2016010155423519       55423519       12109184386400UK Saarland                                                                                              66125Saarbrücken                   Beethovenstr. 41              0000000000000000000077000     20070101                       003070123456789                                        ###:#######                                                                                           3        
UVSD2017010155423519       55423519       12109184386400UK Saarland                                                                                              66125Saarbrücken                   Beethovenstr. 41              0000000000000000000079000     20070101                       003070123456789                                        ###:#######                                                                                           3        
UVSD2018010155423519       55423519       12109184386400UK Saarland                                                                                              66125Saarbrücken                   Beethovenstr. 41              0000000000000000000081000     20070101                       003070123456789                                        ###:#######                                                                                           3        
UVSD2009010101681222       01681222       12139001587400UK Mecklenburg-Vorpommern                                                                                19053Schwerin                      Wismarsche Str. 199           0000000000000000000054000     20020101                       006120123456789p/-                                     P######:##-##-###-##:##/##/###/##:##########:P#####                                                   3        
UVSD2010010101681222       01681222       12139001587400UK Mecklenburg-Vorpommern                                                                                19053Schwerin                      Wismarsche Str. 199           0000000000000000000060480     20020101                       006120123456789p/-                                     P######:##-##-###-##:##/##/###/##:##########:P#####                                                   3        
UVSD2018010101681222       01681222       12139001587400UK Mecklenburg-Vorpommern                                                                                19053Schwerin                      Wismarsche Str. 199           0000000000000000000063840     20020101                       006120123456789p/-                                     P######:##-##-###-##:##/##/###/##:##########:P#####                                                   3        
UVSD2009010107235792       07235792       12169007488400UK Thüringen                                                                                             99867Gotha                         Humboldtstraße 111            0000000000000000000056400     19980101                       010130123456789/.                                      [3|4].##.##/#####                                                                                     3        
UVSD2010010107235792       07235792       12169007488400UK Thüringen                                                                                             99867Gotha                         Humboldtstraße 111            0000000000000000000066000     19980101                       010130123456789/.                                      [3|4].##.##/#####                                                                                     3        
UVSD2009010118477668       18477668       12099190892000UK München                                                                                               80469München                       Müllerstrasse 3               0000000000000000000075000     19980101                       005090123456789                                        1########:[2|3]####                                                                                   3        
UVSD2011010118477668       18477668       12099190892000UK München                                                                                               80805München                       Ungererstr. 71                0000000000000000000081000     19980101                       005090123456789                                        1########:[2|3]####                                                                                   3        
UVSD2012010118477668       18477668       12099190892000Kommunale Unfallversicherung Bayern(ehemals UK München)                                                  80805München                       Ungererstr. 71                0000000000000000000081000     19980101                       005090123456789                                        1########:[2|3]####                                                                                   3        
UVSD2009010113385729       01627953       12139005993000Feuerwehr-UK Nord - Schwerin                                                                             24114Kiel                          Hopfenstraße 2 d              0000000000000000000075600     19000101                       0                                                                                                                                                            4        
UVSD2010010113385729       01627953       12139005993000Feuerwehr-UK Nord - Schwerin                                                                             24114Kiel                          Hopfenstraße 2 d              0000000000000000000078120     19000101                       0                                                                                                                                                            4        
UVSD2011010113385729       01627953       12139005993000Feuerwehr-UK Nord - Schwerin                                                                             24114Kiel                          Hopfenstraße 2 d              0000000000000000000080640     19000101                       0                                                                                                                                                            4        
UVSD2012010113385729       01627953       12139005993000Feuerwehr-UK Nord - Schwerin                                                                             24114Kiel                          Hopfenstraße 2 d              0000000000000000000080640     19000101                       0                                                                                                                                                            4        
